{
  "_format": "hh-sol-artifact-1",
  "contractName": "gGOLDToken",
  "sourceName": "contracts/gGoldToken.sol",
  "abi": [
    {
      "inputs": [
        {
          "internalType": "uint256",
          "name": "initialPrice",
          "type": "uint256"
        }
      ],
      "stateMutability": "nonpayable",
      "type": "constructor"
    },
    {
      "inputs": [
        {
          "internalType": "address",
          "name": "spender",
          "type": "address"
        },
        {
          "internalType": "uint256",
          "name": "allowance",
          "type": "uint256"
        },
        {
          "internalType": "uint256",
          "name": "needed",
          "type": "uint256"
        }
      ],
      "name": "ERC20InsufficientAllowance",
      "type": "error"
    },
    {
      "inputs": [
        {
          "internalType": "address",
          "name": "sender",
          "type": "address"
        },
        {
          "internalType": "uint256",
          "name": "balance",
          "type": "uint256"
        },
        {
          "internalType": "uint256",
          "name": "needed",
          "type": "uint256"
        }
      ],
      "name": "ERC20InsufficientBalance",
      "type": "error"
    },
    {
      "inputs": [
        {
          "internalType": "address",
          "name": "approver",
          "type": "address"
        }
      ],
      "name": "ERC20InvalidApprover",
      "type": "error"
    },
    {
      "inputs": [
        {
          "internalType": "address",
          "name": "receiver",
          "type": "address"
        }
      ],
      "name": "ERC20InvalidReceiver",
      "type": "error"
    },
    {
      "inputs": [
        {
          "internalType": "address",
          "name": "sender",
          "type": "address"
        }
      ],
      "name": "ERC20InvalidSender",
      "type": "error"
    },
    {
      "inputs": [
        {
          "internalType": "address",
          "name": "spender",
          "type": "address"
        }
      ],
      "name": "ERC20InvalidSpender",
      "type": "error"
    },
    {
      "inputs": [
        {
          "internalType": "address",
          "name": "owner",
          "type": "address"
        }
      ],
      "name": "OwnableInvalidOwner",
      "type": "error"
    },
    {
      "inputs": [
        {
          "internalType": "address",
          "name": "account",
          "type": "address"
        }
      ],
      "name": "OwnableUnauthorizedAccount",
      "type": "error"
    },
    {
      "anonymous": false,
      "inputs": [
        {
          "indexed": true,
          "internalType": "address",
          "name": "owner",
          "type": "address"
        },
        {
          "indexed": true,
          "internalType": "address",
          "name": "spender",
          "type": "address"
        },
        {
          "indexed": false,
          "internalType": "uint256",
          "name": "value",
          "type": "uint256"
        }
      ],
      "name": "Approval",
      "type": "event"
    },
    {
      "anonymous": false,
      "inputs": [
        {
          "indexed": false,
          "internalType": "uint256",
          "name": "newPrice",
          "type": "uint256"
        }
      ],
      "name": "GoldPriceUpdated",
      "type": "event"
    },
    {
      "anonymous": false,
      "inputs": [
        {
          "indexed": true,
          "internalType": "address",
          "name": "previousOwner",
          "type": "address"
        },
        {
          "indexed": true,
          "internalType": "address",
          "name": "newOwner",
          "type": "address"
        }
      ],
      "name": "OwnershipTransferred",
      "type": "event"
    },
    {
      "anonymous": false,
      "inputs": [
        {
          "indexed": true,
          "internalType": "address",
          "name": "buyer",
          "type": "address"
        },
        {
          "indexed": false,
          "internalType": "uint256",
          "name": "amount",
          "type": "uint256"
        },
        {
          "indexed": false,
          "internalType": "uint256",
          "name": "totalCost",
          "type": "uint256"
        }
      ],
      "name": "TokensPurchased",
      "type": "event"
    },
    {
      "anonymous": false,
      "inputs": [
        {
          "indexed": true,
          "internalType": "address",
          "name": "seller",
          "type": "address"
        },
        {
          "indexed": false,
          "internalType": "uint256",
          "name": "amount",
          "type": "uint256"
        },
        {
          "indexed": false,
          "internalType": "uint256",
          "name": "totalReceived",
          "type": "uint256"
        }
      ],
      "name": "TokensSold",
      "type": "event"
    },
    {
      "anonymous": false,
      "inputs": [
        {
          "indexed": true,
          "internalType": "address",
          "name": "from",
          "type": "address"
        },
        {
          "indexed": true,
          "internalType": "address",
          "name": "to",
          "type": "address"
        },
        {
          "indexed": false,
          "internalType": "uint256",
          "name": "value",
          "type": "uint256"
        }
      ],
      "name": "Transfer",
      "type": "event"
    },
    {
      "inputs": [
        {
          "internalType": "address",
          "name": "owner",
          "type": "address"
        },
        {
          "internalType": "address",
          "name": "spender",
          "type": "address"
        }
      ],
      "name": "allowance",
      "outputs": [
        {
          "internalType": "uint256",
          "name": "",
          "type": "uint256"
        }
      ],
      "stateMutability": "view",
      "type": "function"
    },
    {
      "inputs": [
        {
          "internalType": "address",
          "name": "spender",
          "type": "address"
        },
        {
          "internalType": "uint256",
          "name": "value",
          "type": "uint256"
        }
      ],
      "name": "approve",
      "outputs": [
        {
          "internalType": "bool",
          "name": "",
          "type": "bool"
        }
      ],
      "stateMutability": "nonpayable",
      "type": "function"
    },
    {
      "inputs": [
        {
          "internalType": "address",
          "name": "account",
          "type": "address"
        }
      ],
      "name": "balanceOf",
      "outputs": [
        {
          "internalType": "uint256",
          "name": "",
          "type": "uint256"
        }
      ],
      "stateMutability": "view",
      "type": "function"
    },
    {
      "inputs": [],
      "name": "buyToken",
      "outputs": [],
      "stateMutability": "payable",
      "type": "function"
    },
    {
      "inputs": [],
      "name": "decimals",
      "outputs": [
        {
          "internalType": "uint8",
          "name": "",
          "type": "uint8"
        }
      ],
      "stateMutability": "view",
      "type": "function"
    },
    {
      "inputs": [],
      "name": "getTokenPrice",
      "outputs": [
        {
          "internalType": "uint256",
          "name": "",
          "type": "uint256"
        }
      ],
      "stateMutability": "view",
      "type": "function"
    },
    {
      "inputs": [],
      "name": "goldPrice",
      "outputs": [
        {
          "internalType": "uint256",
          "name": "",
          "type": "uint256"
        }
      ],
      "stateMutability": "view",
      "type": "function"
    },
    {
      "inputs": [],
      "name": "name",
      "outputs": [
        {
          "internalType": "string",
          "name": "",
          "type": "string"
        }
      ],
      "stateMutability": "view",
      "type": "function"
    },
    {
      "inputs": [],
      "name": "owner",
      "outputs": [
        {
          "internalType": "address",
          "name": "",
          "type": "address"
        }
      ],
      "stateMutability": "view",
      "type": "function"
    },
    {
      "inputs": [],
      "name": "renounceOwnership",
      "outputs": [],
      "stateMutability": "nonpayable",
      "type": "function"
    },
    {
      "inputs": [
        {
          "internalType": "uint256",
          "name": "amount",
          "type": "uint256"
        }
      ],
      "name": "sellToken",
      "outputs": [],
      "stateMutability": "nonpayable",
      "type": "function"
    },
    {
      "inputs": [],
      "name": "symbol",
      "outputs": [
        {
          "internalType": "string",
          "name": "",
          "type": "string"
        }
      ],
      "stateMutability": "view",
      "type": "function"
    },
    {
      "inputs": [],
      "name": "totalSupply",
      "outputs": [
        {
          "internalType": "uint256",
          "name": "",
          "type": "uint256"
        }
      ],
      "stateMutability": "view",
      "type": "function"
    },
    {
      "inputs": [
        {
          "internalType": "address",
          "name": "to",
          "type": "address"
        },
        {
          "internalType": "uint256",
          "name": "value",
          "type": "uint256"
        }
      ],
      "name": "transfer",
      "outputs": [
        {
          "internalType": "bool",
          "name": "",
          "type": "bool"
        }
      ],
      "stateMutability": "nonpayable",
      "type": "function"
    },
    {
      "inputs": [
        {
          "internalType": "address",
          "name": "from",
          "type": "address"
        },
        {
          "internalType": "address",
          "name": "to",
          "type": "address"
        },
        {
          "internalType": "uint256",
          "name": "value",
          "type": "uint256"
        }
      ],
      "name": "transferFrom",
      "outputs": [
        {
          "internalType": "bool",
          "name": "",
          "type": "bool"
        }
      ],
      "stateMutability": "nonpayable",
      "type": "function"
    },
    {
      "inputs": [
        {
          "internalType": "address",
          "name": "newOwner",
          "type": "address"
        }
      ],
      "name": "transferOwnership",
      "outputs": [],
      "stateMutability": "nonpayable",
      "type": "function"
    },
    {
      "inputs": [
        {
          "internalType": "uint256",
          "name": "newPrice",
          "type": "uint256"
        }
      ],
      "name": "updateGoldPrice",
      "outputs": [],
      "stateMutability": "nonpayable",
      "type": "function"
    },
    {
      "stateMutability": "payable",
      "type": "receive"
    }
  ],
  "bytecode": "0x608060405234801561001057600080fd5b5060405161202738038061202783398181016040528101906100329190610294565b336040518060400160405280600581526020017f67474f4c440000000000000000000000000000000000000000000000000000008152506040518060400160405280600581526020017f67474f4c4400000000000000000000000000000000000000000000000000000081525081600390816100ae9190610507565b5080600490816100be9190610507565b505050600073ffffffffffffffffffffffffffffffffffffffff168173ffffffffffffffffffffffffffffffffffffffff16036101335760006040517f1e4fbdf700000000000000000000000000000000000000000000000000000000815260040161012a919061061a565b60405180910390fd5b6101428161019360201b60201c565b5060008111610186576040517f08c379a000000000000000000000000000000000000000000000000000000000815260040161017d906106b8565b60405180910390fd5b80600681905550506106d8565b6000600560009054906101000a900473ffffffffffffffffffffffffffffffffffffffff16905081600560006101000a81548173ffffffffffffffffffffffffffffffffffffffff021916908373ffffffffffffffffffffffffffffffffffffffff1602179055508173ffffffffffffffffffffffffffffffffffffffff168173ffffffffffffffffffffffffffffffffffffffff167f8be0079c531659141344cd1fd0a4f28419497f9722a3daafe3b4186f6b6457e060405160405180910390a35050565b600080fd5b6000819050919050565b6102718161025e565b811461027c57600080fd5b50565b60008151905061028e81610268565b92915050565b6000602082840312156102aa576102a9610259565b5b60006102b88482850161027f565b91505092915050565b600081519050919050565b7f4e487b7100000000000000000000000000000000000000000000000000000000600052604160045260246000fd5b7f4e487b7100000000000000000000000000000000000000000000000000000000600052602260045260246000fd5b6000600282049050600182168061034257607f821691505b602082108103610355576103546102fb565b5b50919050565b60008190508160005260206000209050919050565b60006020601f8301049050919050565b600082821b905092915050565b6000600883026103bd7fffffffffffffffffffffffffffffffffffffffffffffffffffffffffffffffff82610380565b6103c78683610380565b95508019841693508086168417925050509392505050565b6000819050919050565b60006104046103ff6103fa8461025e565b6103df565b61025e565b9050919050565b6000819050919050565b61041e836103e9565b61043261042a8261040b565b84845461038d565b825550505050565b600090565b61044761043a565b610452818484610415565b505050565b5b818110156104765761046b60008261043f565b600181019050610458565b5050565b601f8211156104bb5761048c8161035b565b61049584610370565b810160208510156104a4578190505b6104b86104b085610370565b830182610457565b50505b505050565b600082821c905092915050565b60006104de600019846008026104c0565b1980831691505092915050565b60006104f783836104cd565b9150826002028217905092915050565b610510826102c1565b67ffffffffffffffff811115610529576105286102cc565b5b610533825461032a565b61053e82828561047a565b600060209050601f831160018114610571576000841561055f578287015190505b61056985826104eb565b8655506105d1565b601f19841661057f8661035b565b60005b828110156105a757848901518255600182019150602085019450602081019050610582565b868310156105c457848901516105c0601f8916826104cd565b8355505b6001600288020188555050505b505050505050565b600073ffffffffffffffffffffffffffffffffffffffff82169050919050565b6000610604826105d9565b9050919050565b610614816105f9565b82525050565b600060208201905061062f600083018461060b565b92915050565b600082825260208201905092915050565b7f496e697469616c207072696365206d757374206265206772656174657220746860008201527f616e207a65726f00000000000000000000000000000000000000000000000000602082015250565b60006106a2602783610635565b91506106ad82610646565b604082019050919050565b600060208201905081810360008301526106d181610695565b9050919050565b611940806106e76000396000f3fe6080604052600436106101025760003560e01c806370a0823111610095578063a482171911610064578063a482171914610332578063a9059cbb1461033c578063dd62ed3e14610379578063eebc56f1146103b6578063f2fde38b146103df57610109565b806370a0823114610288578063715018a6146102c55780638da5cb5b146102dc57806395d89b411461030757610109565b806323b872dd116100d157806323b872dd146101ca578063313ce5671461020757806344501404146102325780634b94f50e1461025d57610109565b806306fdde031461010e578063095ea7b31461013957806318160ddd146101765780632397e4d7146101a157610109565b3661010957005b600080fd5b34801561011a57600080fd5b50610123610408565b60405161013091906112c6565b60405180910390f35b34801561014557600080fd5b50610160600480360381019061015b9190611381565b61049a565b60405161016d91906113dc565b60405180910390f35b34801561018257600080fd5b5061018b6104bd565b6040516101989190611406565b60405180910390f35b3480156101ad57600080fd5b506101c860048036038101906101c39190611421565b6104c7565b005b3480156101d657600080fd5b506101f160048036038101906101ec919061144e565b610621565b6040516101fe91906113dc565b60405180910390f35b34801561021357600080fd5b5061021c610650565b60405161022991906114bd565b60405180910390f35b34801561023e57600080fd5b50610247610659565b6040516102549190611406565b60405180910390f35b34801561026957600080fd5b5061027261065f565b60405161027f9190611406565b60405180910390f35b34801561029457600080fd5b506102af60048036038101906102aa91906114d8565b610669565b6040516102bc9190611406565b60405180910390f35b3480156102d157600080fd5b506102da6106b1565b005b3480156102e857600080fd5b506102f16106c5565b6040516102fe9190611514565b60405180910390f35b34801561031357600080fd5b5061031c6106ef565b60405161032991906112c6565b60405180910390f35b61033a610781565b005b34801561034857600080fd5b50610363600480360381019061035e9190611381565b61088b565b60405161037091906113dc565b60405180910390f35b34801561038557600080fd5b506103a0600480360381019061039b919061152f565b6108ae565b6040516103ad9190611406565b60405180910390f35b3480156103c257600080fd5b506103dd60048036038101906103d89190611421565b610935565b005b3480156103eb57600080fd5b50610406600480360381019061040191906114d8565b6109c1565b005b6060600380546104179061159e565b80601f01602080910402602001604051908101604052809291908181526020018280546104439061159e565b80156104905780601f1061046557610100808354040283529160200191610490565b820191906000526020600020905b81548152906001019060200180831161047357829003601f168201915b5050505050905090565b6000806104a5610a47565b90506104b2818585610a4f565b600191505092915050565b6000600254905090565b806104d133610669565b1015610512576040517f08c379a00000000000000000000000000000000000000000000000000000000081526004016105099061161b565b60405180910390fd5b600060065411610557576040517f08c379a000000000000000000000000000000000000000000000000000000000815260040161054e90611687565b60405180910390fd5b6000670de0b6b3a76400006006548361057091906116d6565b61057a9190611747565b90506105863383610a61565b3373ffffffffffffffffffffffffffffffffffffffff166108fc829081150290604051600060405180830381858888f193505050501580156105cc573d6000803e3d6000fd5b503373ffffffffffffffffffffffffffffffffffffffff167f2dcf9433d75db0d8b1c172641f85e319ffe4ad22e108a95d1847ceb906e5195d8383604051610615929190611778565b60405180910390a25050565b60008061062c610a47565b9050610639858285610ae3565b610644858585610b77565b60019150509392505050565b60006012905090565b60065481565b6000600654905090565b60008060008373ffffffffffffffffffffffffffffffffffffffff1673ffffffffffffffffffffffffffffffffffffffff168152602001908152602001600020549050919050565b6106b9610c6b565b6106c36000610cf2565b565b6000600560009054906101000a900473ffffffffffffffffffffffffffffffffffffffff16905090565b6060600480546106fe9061159e565b80601f016020809104026020016040519081016040528092919081815260200182805461072a9061159e565b80156107775780601f1061074c57610100808354040283529160200191610777565b820191906000526020600020905b81548152906001019060200180831161075a57829003601f168201915b5050505050905090565b600034116107c4576040517f08c379a00000000000000000000000000000000000000000000000000000000081526004016107bb906117ed565b60405180910390fd5b600060065411610809576040517f08c379a000000000000000000000000000000000000000000000000000000000815260040161080090611687565b60405180910390fd5b6000600654670de0b6b3a76400003461082291906116d6565b61082c9190611747565b90506108383382610db8565b3373ffffffffffffffffffffffffffffffffffffffff167f8fafebcaf9d154343dad25669bfa277f4fbacd7ac6b0c4fed522580e040a0f338234604051610880929190611778565b60405180910390a250565b600080610896610a47565b90506108a3818585610b77565b600191505092915050565b6000600160008473ffffffffffffffffffffffffffffffffffffffff1673ffffffffffffffffffffffffffffffffffffffff16815260200190815260200160002060008373ffffffffffffffffffffffffffffffffffffffff1673ffffffffffffffffffffffffffffffffffffffff16815260200190815260200160002054905092915050565b61093d610c6b565b60008111610980576040517f08c379a00000000000000000000000000000000000000000000000000000000081526004016109779061187f565b60405180910390fd5b806006819055507f2e600c03582901c1ea47c71f804aa91a8f85e256d3e66cd2fe327144e684f75a816040516109b69190611406565b60405180910390a150565b6109c9610c6b565b600073ffffffffffffffffffffffffffffffffffffffff168173ffffffffffffffffffffffffffffffffffffffff1603610a3b5760006040517f1e4fbdf7000000000000000000000000000000000000000000000000000000008152600401610a329190611514565b60405180910390fd5b610a4481610cf2565b50565b600033905090565b610a5c8383836001610e3a565b505050565b600073ffffffffffffffffffffffffffffffffffffffff168273ffffffffffffffffffffffffffffffffffffffff1603610ad35760006040517f96c6fd1e000000000000000000000000000000000000000000000000000000008152600401610aca9190611514565b60405180910390fd5b610adf82600083611011565b5050565b6000610aef84846108ae565b90507fffffffffffffffffffffffffffffffffffffffffffffffffffffffffffffffff8114610b715781811015610b61578281836040517ffb8f41b2000000000000000000000000000000000000000000000000000000008152600401610b589392919061189f565b60405180910390fd5b610b7084848484036000610e3a565b5b50505050565b600073ffffffffffffffffffffffffffffffffffffffff168373ffffffffffffffffffffffffffffffffffffffff1603610be95760006040517f96c6fd1e000000000000000000000000000000000000000000000000000000008152600401610be09190611514565b60405180910390fd5b600073ffffffffffffffffffffffffffffffffffffffff168273ffffffffffffffffffffffffffffffffffffffff1603610c5b5760006040517fec442f05000000000000000000000000000000000000000000000000000000008152600401610c529190611514565b60405180910390fd5b610c66838383611011565b505050565b610c73610a47565b73ffffffffffffffffffffffffffffffffffffffff16610c916106c5565b73ffffffffffffffffffffffffffffffffffffffff1614610cf057610cb4610a47565b6040517f118cdaa7000000000000000000000000000000000000000000000000000000008152600401610ce79190611514565b60405180910390fd5b565b6000600560009054906101000a900473ffffffffffffffffffffffffffffffffffffffff16905081600560006101000a81548173ffffffffffffffffffffffffffffffffffffffff021916908373ffffffffffffffffffffffffffffffffffffffff1602179055508173ffffffffffffffffffffffffffffffffffffffff168173ffffffffffffffffffffffffffffffffffffffff167f8be0079c531659141344cd1fd0a4f28419497f9722a3daafe3b4186f6b6457e060405160405180910390a35050565b600073ffffffffffffffffffffffffffffffffffffffff168273ffffffffffffffffffffffffffffffffffffffff1603610e2a5760006040517fec442f05000000000000000000000000000000000000000000000000000000008152600401610e219190611514565b60405180910390fd5b610e3660008383611011565b5050565b600073ffffffffffffffffffffffffffffffffffffffff168473ffffffffffffffffffffffffffffffffffffffff1603610eac5760006040517fe602df05000000000000000000000000000000000000000000000000000000008152600401610ea39190611514565b60405180910390fd5b600073ffffffffffffffffffffffffffffffffffffffff168373ffffffffffffffffffffffffffffffffffffffff1603610f1e5760006040517f94280d62000000000000000000000000000000000000000000000000000000008152600401610f159190611514565b60405180910390fd5b81600160008673ffffffffffffffffffffffffffffffffffffffff1673ffffffffffffffffffffffffffffffffffffffff16815260200190815260200160002060008573ffffffffffffffffffffffffffffffffffffffff1673ffffffffffffffffffffffffffffffffffffffff16815260200190815260200160002081905550801561100b578273ffffffffffffffffffffffffffffffffffffffff168473ffffffffffffffffffffffffffffffffffffffff167f8c5be1e5ebec7d5bd14f71427d1e84f3dd0314c0f7b2291e5b200ac8c7c3b925846040516110029190611406565b60405180910390a35b50505050565b600073ffffffffffffffffffffffffffffffffffffffff168373ffffffffffffffffffffffffffffffffffffffff160361106357806002600082825461105791906118d6565b92505081905550611136565b60008060008573ffffffffffffffffffffffffffffffffffffffff1673ffffffffffffffffffffffffffffffffffffffff168152602001908152602001600020549050818110156110ef578381836040517fe450d38c0000000000000000000000000000000000000000000000000000000081526004016110e69392919061189f565b60405180910390fd5b8181036000808673ffffffffffffffffffffffffffffffffffffffff1673ffffffffffffffffffffffffffffffffffffffff16815260200190815260200160002081905550505b600073ffffffffffffffffffffffffffffffffffffffff168273ffffffffffffffffffffffffffffffffffffffff160361117f57806002600082825403925050819055506111cc565b806000808473ffffffffffffffffffffffffffffffffffffffff1673ffffffffffffffffffffffffffffffffffffffff168152602001908152602001600020600082825401925050819055505b8173ffffffffffffffffffffffffffffffffffffffff168373ffffffffffffffffffffffffffffffffffffffff167fddf252ad1be2c89b69c2b068fc378daa952ba7f163c4a11628f55a4df523b3ef836040516112299190611406565b60405180910390a3505050565b600081519050919050565b600082825260208201905092915050565b60005b83811015611270578082015181840152602081019050611255565b60008484015250505050565b6000601f19601f8301169050919050565b600061129882611236565b6112a28185611241565b93506112b2818560208601611252565b6112bb8161127c565b840191505092915050565b600060208201905081810360008301526112e0818461128d565b905092915050565b600080fd5b600073ffffffffffffffffffffffffffffffffffffffff82169050919050565b6000611318826112ed565b9050919050565b6113288161130d565b811461133357600080fd5b50565b6000813590506113458161131f565b92915050565b6000819050919050565b61135e8161134b565b811461136957600080fd5b50565b60008135905061137b81611355565b92915050565b60008060408385031215611398576113976112e8565b5b60006113a685828601611336565b92505060206113b78582860161136c565b9150509250929050565b60008115159050919050565b6113d6816113c1565b82525050565b60006020820190506113f160008301846113cd565b92915050565b6114008161134b565b82525050565b600060208201905061141b60008301846113f7565b92915050565b600060208284031215611437576114366112e8565b5b60006114458482850161136c565b91505092915050565b600080600060608486031215611467576114666112e8565b5b600061147586828701611336565b935050602061148686828701611336565b92505060406114978682870161136c565b9150509250925092565b600060ff82169050919050565b6114b7816114a1565b82525050565b60006020820190506114d260008301846114ae565b92915050565b6000602082840312156114ee576114ed6112e8565b5b60006114fc84828501611336565b91505092915050565b61150e8161130d565b82525050565b60006020820190506115296000830184611505565b92915050565b60008060408385031215611546576115456112e8565b5b600061155485828601611336565b925050602061156585828601611336565b9150509250929050565b7f4e487b7100000000000000000000000000000000000000000000000000000000600052602260045260246000fd5b600060028204905060018216806115b657607f821691505b6020821081036115c9576115c861156f565b5b50919050565b7f496e73756666696369656e742062616c616e6365000000000000000000000000600082015250565b6000611605601483611241565b9150611610826115cf565b602082019050919050565b60006020820190508181036000830152611634816115f8565b9050919050565b7f476f6c64207072696365206d7573742062652073657400000000000000000000600082015250565b6000611671601683611241565b915061167c8261163b565b602082019050919050565b600060208201905081810360008301526116a081611664565b9050919050565b7f4e487b7100000000000000000000000000000000000000000000000000000000600052601160045260246000fd5b60006116e18261134b565b91506116ec8361134b565b92508282026116fa8161134b565b91508282048414831517611711576117106116a7565b5b5092915050565b7f4e487b7100000000000000000000000000000000000000000000000000000000600052601260045260246000fd5b60006117528261134b565b915061175d8361134b565b92508261176d5761176c611718565b5b828204905092915050565b600060408201905061178d60008301856113f7565b61179a60208301846113f7565b9392505050565b7f53656e642045544820746f2062757920746f6b656e7300000000000000000000600082015250565b60006117d7601683611241565b91506117e2826117a1565b602082019050919050565b60006020820190508181036000830152611806816117ca565b9050919050565b7f4e6577207072696365206d7573742062652067726561746572207468616e207a60008201527f65726f0000000000000000000000000000000000000000000000000000000000602082015250565b6000611869602383611241565b91506118748261180d565b604082019050919050565b600060208201905081810360008301526118988161185c565b9050919050565b60006060820190506118b46000830186611505565b6118c160208301856113f7565b6118ce60408301846113f7565b949350505050565b60006118e18261134b565b91506118ec8361134b565b9250828201905080821115611904576119036116a7565b5b9291505056fea26469706673582212203736d4de332eb52036e7fa84593c28e10091a39dc6de90e3a5db5923b243773c64736f6c634300081b0033",
  "linkReferences": {},
  "deployedLinkReferences": {}
}